{
  "_format": "hh-sol-artifact-1",
  "contractName": "DutchAuction",
  "sourceName": "contracts/DutchAuction.sol",
  "abi": [
    {
      "inputs": [
        {
          "internalType": "uint256",
          "name": "_startingPrice",
          "type": "uint256"
        },
        {
          "internalType": "uint256",
          "name": "_discountRate",
          "type": "uint256"
        },
        {
          "internalType": "string",
          "name": "_item",
          "type": "string"
        }
      ],
      "stateMutability": "nonpayable",
      "type": "constructor"
    },
    {
      "anonymous": false,
      "inputs": [
        {
          "indexed": false,
          "internalType": "uint256",
          "name": "price",
          "type": "uint256"
        },
        {
          "indexed": false,
          "internalType": "address",
          "name": "buyer",
          "type": "address"
        }
      ],
      "name": "Bought",
      "type": "event"
    },
    {
      "stateMutability": "payable",
      "type": "fallback"
    },
    {
      "inputs": [],
      "name": "buy",
      "outputs": [],
      "stateMutability": "payable",
      "type": "function"
    },
    {
      "inputs": [],
      "name": "discountRate",
      "outputs": [
        {
          "internalType": "uint256",
          "name": "",
          "type": "uint256"
        }
      ],
      "stateMutability": "view",
      "type": "function"
    },
    {
      "inputs": [],
      "name": "endsAt",
      "outputs": [
        {
          "internalType": "uint256",
          "name": "",
          "type": "uint256"
        }
      ],
      "stateMutability": "view",
      "type": "function"
    },
    {
      "inputs": [],
      "name": "getPrice",
      "outputs": [
        {
          "internalType": "uint256",
          "name": "",
          "type": "uint256"
        }
      ],
      "stateMutability": "view",
      "type": "function"
    },
    {
      "inputs": [],
      "name": "item",
      "outputs": [
        {
          "internalType": "string",
          "name": "",
          "type": "string"
        }
      ],
      "stateMutability": "view",
      "type": "function"
    },
    {
      "inputs": [],
      "name": "nextBlock",
      "outputs": [],
      "stateMutability": "nonpayable",
      "type": "function"
    },
    {
      "inputs": [],
      "name": "seller",
      "outputs": [
        {
          "internalType": "address payable",
          "name": "",
          "type": "address"
        }
      ],
      "stateMutability": "view",
      "type": "function"
    },
    {
      "inputs": [],
      "name": "startAt",
      "outputs": [
        {
          "internalType": "uint256",
          "name": "",
          "type": "uint256"
        }
      ],
      "stateMutability": "view",
      "type": "function"
    },
    {
      "inputs": [],
      "name": "startingPrice",
      "outputs": [
        {
          "internalType": "uint256",
          "name": "",
          "type": "uint256"
        }
      ],
      "stateMutability": "view",
      "type": "function"
    },
    {
      "inputs": [],
      "name": "stopped",
      "outputs": [
        {
          "internalType": "bool",
          "name": "",
          "type": "bool"
        }
      ],
      "stateMutability": "view",
      "type": "function"
    },
    {
      "stateMutability": "payable",
      "type": "receive"
    }
  ],
  "bytecode": "0x6101206040523480156200001257600080fd5b5060405162001446380380620014468339818101604052810190620000389190620002dc565b6202a3008262000049919062000386565b8310156200008e576040517f08c379a0000000000000000000000000000000000000000000000000000000008152600401620000859062000432565b60405180910390fd5b3373ffffffffffffffffffffffffffffffffffffffff1660808173ffffffffffffffffffffffffffffffffffffffff16815250508260a081815250508161010081815250504260c081815250506202a30042620000ec919062000454565b60e081815250508060009081620001049190620006d0565b50505050620007b7565b6000604051905090565b600080fd5b600080fd5b6000819050919050565b620001378162000122565b81146200014357600080fd5b50565b60008151905062000157816200012c565b92915050565b600080fd5b600080fd5b6000601f19601f8301169050919050565b7f4e487b7100000000000000000000000000000000000000000000000000000000600052604160045260246000fd5b620001b28262000167565b810181811067ffffffffffffffff82111715620001d457620001d362000178565b5b80604052505050565b6000620001e96200010e565b9050620001f78282620001a7565b919050565b600067ffffffffffffffff8211156200021a576200021962000178565b5b620002258262000167565b9050602081019050919050565b60005b838110156200025257808201518184015260208101905062000235565b60008484015250505050565b6000620002756200026f84620001fc565b620001dd565b90508281526020810184848401111562000294576200029362000162565b5b620002a184828562000232565b509392505050565b600082601f830112620002c157620002c06200015d565b5b8151620002d38482602086016200025e565b91505092915050565b600080600060608486031215620002f857620002f762000118565b5b6000620003088682870162000146565b93505060206200031b8682870162000146565b925050604084015167ffffffffffffffff8111156200033f576200033e6200011d565b5b6200034d86828701620002a9565b9150509250925092565b7f4e487b7100000000000000000000000000000000000000000000000000000000600052601160045260246000fd5b6000620003938262000122565b9150620003a08362000122565b9250828202620003b08162000122565b91508282048414831517620003ca57620003c962000357565b5b5092915050565b600082825260208201905092915050565b7f707269636520746f6f206c6f7721000000000000000000000000000000000000600082015250565b60006200041a600e83620003d1565b91506200042782620003e2565b602082019050919050565b600060208201905081810360008301526200044d816200040b565b9050919050565b6000620004618262000122565b91506200046e8362000122565b925082820190508082111562000489576200048862000357565b5b92915050565b600081519050919050565b7f4e487b7100000000000000000000000000000000000000000000000000000000600052602260045260246000fd5b60006002820490506001821680620004e257607f821691505b602082108103620004f857620004f76200049a565b5b50919050565b60008190508160005260206000209050919050565b60006020601f8301049050919050565b600082821b905092915050565b600060088302620005627fffffffffffffffffffffffffffffffffffffffffffffffffffffffffffffffff8262000523565b6200056e868362000523565b95508019841693508086168417925050509392505050565b6000819050919050565b6000620005b1620005ab620005a58462000122565b62000586565b62000122565b9050919050565b6000819050919050565b620005cd8362000590565b620005e5620005dc82620005b8565b84845462000530565b825550505050565b600090565b620005fc620005ed565b62000609818484620005c2565b505050565b5b81811015620006315762000625600082620005f2565b6001810190506200060f565b5050565b601f82111562000680576200064a81620004fe565b620006558462000513565b8101602085101562000665578190505b6200067d620006748562000513565b8301826200060e565b50505b505050565b600082821c905092915050565b6000620006a56000198460080262000685565b1980831691505092915050565b6000620006c0838362000692565b9150826002028217905092915050565b620006db826200048f565b67ffffffffffffffff811115620006f757620006f662000178565b5b620007038254620004c9565b6200071082828562000635565b600060209050601f83116001811462000748576000841562000733578287015190505b6200073f8582620006b2565b865550620007af565b601f1984166200075886620004fe565b60005b8281101562000782578489015182556001820191506020850194506020810190506200075b565b86831015620007a257848901516200079e601f89168262000692565b8355505b6001600288020188555050505b505050505050565b60805160a05160c05160e05161010051610c276200081f6000396000818161041501526106dd01526000818161035701526104c50152600081816103e4015261069501526000818161044301526106b901526000818161033301526105d70152610c276000f3fe6080604052600436106100955760003560e01c8063a6f2ae3a11610059578063a6f2ae3a146101df578063c7446565146101e9578063d6fbf20214610214578063e6c0e6d51461023f578063f2a4a82e1461026a576100db565b806308551a531461011c5780630a09284a1461014757806375f12b211461017257806383788fce1461019d57806398d5fdca146101b4576100db565b366100db576100d96040518060400160405280600e81526020017f2d2d2d2d2d20726563656976653a00000000000000000000000000000000000081525034610295565b005b61011a6040518060400160405280600f81526020017f2d2d2d2d2d2066616c6c6261636b3a000000000000000000000000000000000081525034610295565b005b34801561012857600080fd5b50610131610331565b60405161013e91906107f7565b60405180910390f35b34801561015357600080fd5b5061015c610355565b604051610169919061082b565b60405180910390f35b34801561017e57600080fd5b50610187610379565b6040516101949190610861565b60405180910390f35b3480156101a957600080fd5b506101b261038c565b005b3480156101c057600080fd5b506101c961038e565b6040516101d6919061082b565b60405180910390f35b6101e7610473565b005b3480156101f557600080fd5b506101fe610693565b60405161020b919061082b565b60405180910390f35b34801561022057600080fd5b506102296106b7565b604051610236919061082b565b60405180910390f35b34801561024b57600080fd5b506102546106db565b604051610261919061082b565b60405180910390f35b34801561027657600080fd5b5061027f6106ff565b60405161028c919061090c565b60405180910390f35b61032d82826040516024016102ab92919061092e565b6040516020818303038152906040527fb60e72cc000000000000000000000000000000000000000000000000000000007bffffffffffffffffffffffffffffffffffffffffffffffffffffffff19166020820180517bffffffffffffffffffffffffffffffffffffffffffffffffffffffff838183161783525050505061078d565b5050565b7f000000000000000000000000000000000000000000000000000000000000000081565b7f000000000000000000000000000000000000000000000000000000000000000081565b600160009054906101000a900460ff1681565b565b6000600160009054906101000a900460ff16156103e0576040517f08c379a00000000000000000000000000000000000000000000000000000000081526004016103d7906109aa565b60405180910390fd5b60007f00000000000000000000000000000000000000000000000000000000000000004261040e91906109f9565b90506000817f000000000000000000000000000000000000000000000000000000000000000061043e9190610a2d565b9050807f000000000000000000000000000000000000000000000000000000000000000061046c91906109f9565b9250505090565b600160009054906101000a900460ff16156104c3576040517f08c379a00000000000000000000000000000000000000000000000000000000081526004016104ba906109aa565b60405180910390fd5b7f00000000000000000000000000000000000000000000000000000000000000004210610525576040517f08c379a000000000000000000000000000000000000000000000000000000000815260040161051c90610abb565b60405180910390fd5b600061052f61038e565b905080341015610574576040517f08c379a000000000000000000000000000000000000000000000000000000000815260040161056b90610b27565b60405180910390fd5b6000813461058291906109f9565b905060008111156105d5573373ffffffffffffffffffffffffffffffffffffffff166108fc829081150290604051600060405180830381858888f193505050501580156105d3573d6000803e3d6000fd5b505b7f000000000000000000000000000000000000000000000000000000000000000073ffffffffffffffffffffffffffffffffffffffff166108fc479081150290604051600060405180830381858888f1935050505015801561063b573d6000803e3d6000fd5b5060018060006101000a81548160ff0219169083151502179055507fc54c8cc1c7525b424ec71b685c00d9355581a280488018c22005332ceb2fd4068233604051610687929190610b68565b60405180910390a15050565b7f000000000000000000000000000000000000000000000000000000000000000081565b7f000000000000000000000000000000000000000000000000000000000000000081565b7f000000000000000000000000000000000000000000000000000000000000000081565b6000805461070c90610bc0565b80601f016020809104026020016040519081016040528092919081815260200182805461073890610bc0565b80156107855780601f1061075a57610100808354040283529160200191610785565b820191906000526020600020905b81548152906001019060200180831161076857829003601f168201915b505050505081565b60008151905060006a636f6e736f6c652e6c6f679050602083016000808483855afa5050505050565b600073ffffffffffffffffffffffffffffffffffffffff82169050919050565b60006107e1826107b6565b9050919050565b6107f1816107d6565b82525050565b600060208201905061080c60008301846107e8565b92915050565b6000819050919050565b61082581610812565b82525050565b6000602082019050610840600083018461081c565b92915050565b60008115159050919050565b61085b81610846565b82525050565b60006020820190506108766000830184610852565b92915050565b600081519050919050565b600082825260208201905092915050565b60005b838110156108b657808201518184015260208101905061089b565b60008484015250505050565b6000601f19601f8301169050919050565b60006108de8261087c565b6108e88185610887565b93506108f8818560208601610898565b610901816108c2565b840191505092915050565b6000602082019050818103600083015261092681846108d3565b905092915050565b6000604082019050818103600083015261094881856108d3565b9050610957602083018461081c565b9392505050565b7f68617320616c72656164792073746f7070656421000000000000000000000000600082015250565b6000610994601483610887565b915061099f8261095e565b602082019050919050565b600060208201905081810360008301526109c381610987565b9050919050565b7f4e487b7100000000000000000000000000000000000000000000000000000000600052601160045260246000fd5b6000610a0482610812565b9150610a0f83610812565b9250828203905081811115610a2757610a266109ca565b5b92915050565b6000610a3882610812565b9150610a4383610812565b9250828202610a5181610812565b91508282048414831517610a6857610a676109ca565b5b5092915050565b7f746f6f206c617465210000000000000000000000000000000000000000000000600082015250565b6000610aa5600983610887565b9150610ab082610a6f565b602082019050919050565b60006020820190508181036000830152610ad481610a98565b9050919050565b7f746f6f206c6f7721000000000000000000000000000000000000000000000000600082015250565b6000610b11600883610887565b9150610b1c82610adb565b602082019050919050565b60006020820190508181036000830152610b4081610b04565b9050919050565b6000610b52826107b6565b9050919050565b610b6281610b47565b82525050565b6000604082019050610b7d600083018561081c565b610b8a6020830184610b59565b9392505050565b7f4e487b7100000000000000000000000000000000000000000000000000000000600052602260045260246000fd5b60006002820490506001821680610bd857607f821691505b602082108103610beb57610bea610b91565b5b5091905056fea2646970667358221220eb58132c78693d095ad9a05f8d3d7a3b8d7fa4274de1032b67fa7649bec02b8964736f6c63430008120033",
  "linkReferences": {},
  "deployedLinkReferences": {}
}